{"abi":[{"type":"constructor","inputs":[],"stateMutability":"nonpayable"},{"type":"function","name":"FAUCET_AMOUNT","inputs":[],"outputs":[{"name":"","type":"uint256","internalType":"uint256"}],"stateMutability":"view"},{"type":"function","name":"FAUCET_COOLDOWN","inputs":[],"outputs":[{"name":"","type":"uint256","internalType":"uint256"}],"stateMutability":"view"},{"type":"function","name":"allowance","inputs":[{"name":"owner","type":"address","internalType":"address"},{"name":"spender","type":"address","internalType":"address"}],"outputs":[{"name":"","type":"uint256","internalType":"uint256"}],"stateMutability":"view"},{"type":"function","name":"approve","inputs":[{"name":"spender","type":"address","internalType":"address"},{"name":"value","type":"uint256","internalType":"uint256"}],"outputs":[{"name":"","type":"bool","internalType":"bool"}],"stateMutability":"nonpayable"},{"type":"function","name":"balanceOf","inputs":[{"name":"account","type":"address","internalType":"address"}],"outputs":[{"name":"","type":"uint256","internalType":"uint256"}],"stateMutability":"view"},{"type":"function","name":"decimals","inputs":[],"outputs":[{"name":"","type":"uint8","internalType":"uint8"}],"stateMutability":"view"},{"type":"function","name":"faucet","inputs":[],"outputs":[],"stateMutability":"nonpayable"},{"type":"function","name":"lastFaucetClaim","inputs":[{"name":"","type":"address","internalType":"address"}],"outputs":[{"name":"","type":"uint256","internalType":"uint256"}],"stateMutability":"view"},{"type":"function","name":"mintForPool","inputs":[{"name":"pool","type":"address","internalType":"address"},{"name":"amount","type":"uint256","internalType":"uint256"}],"outputs":[],"stateMutability":"nonpayable"},{"type":"function","name":"name","inputs":[],"outputs":[{"name":"","type":"string","internalType":"string"}],"stateMutability":"view"},{"type":"function","name":"owner","inputs":[],"outputs":[{"name":"","type":"address","internalType":"address"}],"stateMutability":"view"},{"type":"function","name":"renounceOwnership","inputs":[],"outputs":[],"stateMutability":"nonpayable"},{"type":"function","name":"symbol","inputs":[],"outputs":[{"name":"","type":"string","internalType":"string"}],"stateMutability":"view"},{"type":"function","name":"totalSupply","inputs":[],"outputs":[{"name":"","type":"uint256","internalType":"uint256"}],"stateMutability":"view"},{"type":"function","name":"transfer","inputs":[{"name":"to","type":"address","internalType":"address"},{"name":"value","type":"uint256","internalType":"uint256"}],"outputs":[{"name":"","type":"bool","internalType":"bool"}],"stateMutability":"nonpayable"},{"type":"function","name":"transferFrom","inputs":[{"name":"from","type":"address","internalType":"address"},{"name":"to","type":"address","internalType":"address"},{"name":"value","type":"uint256","internalType":"uint256"}],"outputs":[{"name":"","type":"bool","internalType":"bool"}],"stateMutability":"nonpayable"},{"type":"function","name":"transferOwnership","inputs":[{"name":"newOwner","type":"address","internalType":"address"}],"outputs":[],"stateMutability":"nonpayable"},{"type":"event","name":"Approval","inputs":[{"name":"owner","type":"address","indexed":true,"internalType":"address"},{"name":"spender","type":"address","indexed":true,"internalType":"address"},{"name":"value","type":"uint256","indexed":false,"internalType":"uint256"}],"anonymous":false},{"type":"event","name":"FaucetClaimed","inputs":[{"name":"user","type":"address","indexed":true,"internalType":"address"},{"name":"amount","type":"uint256","indexed":false,"internalType":"uint256"}],"anonymous":false},{"type":"event","name":"OwnershipTransferred","inputs":[{"name":"previousOwner","type":"address","indexed":true,"internalType":"address"},{"name":"newOwner","type":"address","indexed":true,"internalType":"address"}],"anonymous":false},{"type":"event","name":"Transfer","inputs":[{"name":"from","type":"address","indexed":true,"internalType":"address"},{"name":"to","type":"address","indexed":true,"internalType":"address"},{"name":"value","type":"uint256","indexed":false,"internalType":"uint256"}],"anonymous":false},{"type":"error","name":"ERC20InsufficientAllowance","inputs":[{"name":"spender","type":"address","internalType":"address"},{"name":"allowance","type":"uint256","internalType":"uint256"},{"name":"needed","type":"uint256","internalType":"uint256"}]},{"type":"error","name":"ERC20InsufficientBalance","inputs":[{"name":"sender","type":"address","internalType":"address"},{"name":"balance","type":"uint256","internalType":"uint256"},{"name":"needed","type":"uint256","internalType":"uint256"}]},{"type":"error","name":"ERC20InvalidApprover","inputs":[{"name":"approver","type":"address","internalType":"address"}]},{"type":"error","name":"ERC20InvalidReceiver","inputs":[{"name":"receiver","type":"address","internalType":"address"}]},{"type":"error","name":"ERC20InvalidSender","inputs":[{"name":"sender","type":"address","internalType":"address"}]},{"type":"error","name":"ERC20InvalidSpender","inputs":[{"name":"spender","type":"address","internalType":"address"}]},{"type":"error","name":"OwnableInvalidOwner","inputs":[{"name":"owner","type":"address","internalType":"address"}]},{"type":"error","name":"OwnableUnauthorizedAccount","inputs":[{"name":"account","type":"address","internalType":"address"}]}],"bytecode":{"object":"0x608060405234801562000010575f80fd5b50336040518060400160405280600d81526020016c1e9ad31510c815195cdd1b995d609a1b815250604051806040016040528060058152602001647a6b4c544360d81b81525081600390816200006791906200032a565b5060046200007682826200032a565b5050506001600160a01b038116620000a857604051631e4fbdf760e01b81525f60048201526024015b60405180910390fd5b620000b381620000d0565b50620000ca3369d3c21bcecceda100000062000121565b6200041c565b600580546001600160a01b038381166001600160a01b0319831681179093556040519116919082907f8be0079c531659141344cd1fd0a4f28419497f9722a3daafe3b4186f6b6457e0905f90a35050565b6001600160a01b0382166200014c5760405163ec442f0560e01b81525f60048201526024016200009f565b620001595f83836200015d565b5050565b6001600160a01b0383166200018b578060025f8282546200017f9190620003f6565b90915550620001fd9050565b6001600160a01b0383165f9081526020819052604090205481811015620001df5760405163391434e360e21b81526001600160a01b038516600482015260248101829052604481018390526064016200009f565b6001600160a01b0384165f9081526020819052604090209082900390555b6001600160a01b0382166200021b5760028054829003905562000239565b6001600160a01b0382165f9081526020819052604090208054820190555b816001600160a01b0316836001600160a01b03167fddf252ad1be2c89b69c2b068fc378daa952ba7f163c4a11628f55a4df523b3ef836040516200027f91815260200190565b60405180910390a3505050565b634e487b7160e01b5f52604160045260245ffd5b600181811c90821680620002b557607f821691505b602082108103620002d457634e487b7160e01b5f52602260045260245ffd5b50919050565b601f8211156200032557805f5260205f20601f840160051c81016020851015620003015750805b601f840160051c820191505b8181101562000322575f81556001016200030d565b50505b505050565b81516001600160401b038111156200034657620003466200028c565b6200035e81620003578454620002a0565b84620002da565b602080601f83116001811462000394575f84156200037c5750858301515b5f19600386901b1c1916600185901b178555620003ee565b5f85815260208120601f198616915b82811015620003c457888601518255948401946001909101908401620003a3565b5085821015620003e257878501515f19600388901b60f8161c191681555b505060018460011b0185555b505050505050565b808201808211156200041657634e487b7160e01b5f52601160045260245ffd5b92915050565b6109e1806200042a5f395ff3fe608060405234801561000f575f80fd5b5060043610610106575f3560e01c8063766976401161009e57806395d89b411161006e57806395d89b4114610217578063a9059cbb1461021f578063dd62ed3e14610232578063de5f72fd1461026a578063f2fde38b14610272575f80fd5b806376697640146101c45780637d1d5d19146101d35780638a877205146101dd5780638da5cb5b146101fc575f80fd5b806323b872dd116100d957806323b872dd14610172578063313ce5671461018557806370a0823114610194578063715018a6146101bc575f80fd5b80630219a7141461010a57806306fdde031461011f578063095ea7b31461013d57806318160ddd14610160575b5f80fd5b61011d610118366004610856565b610285565b005b61012761029b565b604051610134919061087e565b60405180910390f35b61015061014b366004610856565b61032b565b6040519015158152602001610134565b6002545b604051908152602001610134565b6101506101803660046108ca565b610344565b60405160128152602001610134565b6101646101a2366004610903565b6001600160a01b03165f9081526020819052604090205490565b61011d610367565b610164678ac7230489e8000081565b6101646201518081565b6101646101eb366004610903565b60066020525f908152604090205481565b6005546040516001600160a01b039091168152602001610134565b61012761037a565b61015061022d366004610856565b610389565b610164610240366004610923565b6001600160a01b039182165f90815260016020908152604080832093909416825291909152205490565b61011d610396565b61011d610280366004610903565b610469565b61028d6104a6565b61029782826104d3565b5050565b6060600380546102aa90610954565b80601f01602080910402602001604051908101604052809291908181526020018280546102d690610954565b80156103215780601f106102f857610100808354040283529160200191610321565b820191905f5260205f20905b81548152906001019060200180831161030457829003601f168201915b5050505050905090565b5f33610338818585610507565b60019150505b92915050565b5f33610351858285610519565b61035c858585610595565b506001949350505050565b61036f6104a6565b6103785f6105f2565b565b6060600480546102aa90610954565b5f33610338818585610595565b335f908152600660205260409020546103b390620151809061098c565b4210156104075760405162461bcd60e51b815260206004820181905260248201527f7a6b4c54433a20436f6f6c646f776e206163746976652c20776169742032346860448201526064015b60405180910390fd5b335f81815260066020526040902042905561042a90678ac7230489e800006104d3565b604051678ac7230489e80000815233907f5d4f415c63cd8a5874d9d291cdd64cec37e5dc236d90d659c958d109d78074b39060200160405180910390a2565b6104716104a6565b6001600160a01b03811661049a57604051631e4fbdf760e01b81525f60048201526024016103fe565b6104a3816105f2565b50565b6005546001600160a01b031633146103785760405163118cdaa760e01b81523360048201526024016103fe565b6001600160a01b0382166104fc5760405163ec442f0560e01b81525f60048201526024016103fe565b6102975f8383610643565b6105148383836001610769565b505050565b6001600160a01b038381165f908152600160209081526040808320938616835292905220545f1981101561058f578181101561058157604051637dc7a0d960e11b81526001600160a01b038416600482015260248101829052604481018390526064016103fe565b61058f84848484035f610769565b50505050565b6001600160a01b0383166105be57604051634b637e8f60e11b81525f60048201526024016103fe565b6001600160a01b0382166105e75760405163ec442f0560e01b81525f60048201526024016103fe565b610514838383610643565b600580546001600160a01b038381166001600160a01b0319831681179093556040519116919082907f8be0079c531659141344cd1fd0a4f28419497f9722a3daafe3b4186f6b6457e0905f90a35050565b6001600160a01b03831661066d578060025f828254610662919061098c565b909155506106dd9050565b6001600160a01b0383165f90815260208190526040902054818110156106bf5760405163391434e360e21b81526001600160a01b038516600482015260248101829052604481018390526064016103fe565b6001600160a01b0384165f9081526020819052604090209082900390555b6001600160a01b0382166106f957600280548290039055610717565b6001600160a01b0382165f9081526020819052604090208054820190555b816001600160a01b0316836001600160a01b03167fddf252ad1be2c89b69c2b068fc378daa952ba7f163c4a11628f55a4df523b3ef8360405161075c91815260200190565b60405180910390a3505050565b6001600160a01b0384166107925760405163e602df0560e01b81525f60048201526024016103fe565b6001600160a01b0383166107bb57604051634a1406b160e11b81525f60048201526024016103fe565b6001600160a01b038085165f908152600160209081526040808320938716835292905220829055801561058f57826001600160a01b0316846001600160a01b03167f8c5be1e5ebec7d5bd14f71427d1e84f3dd0314c0f7b2291e5b200ac8c7c3b9258460405161082d91815260200190565b60405180910390a350505050565b80356001600160a01b0381168114610851575f80fd5b919050565b5f8060408385031215610867575f80fd5b6108708361083b565b946020939093013593505050565b5f602080835283518060208501525f5b818110156108aa5785810183015185820160400152820161088e565b505f604082860101526040601f19601f8301168501019250505092915050565b5f805f606084860312156108dc575f80fd5b6108e58461083b565b92506108f36020850161083b565b9150604084013590509250925092565b5f60208284031215610913575f80fd5b61091c8261083b565b9392505050565b5f8060408385031215610934575f80fd5b61093d8361083b565b915061094b6020840161083b565b90509250929050565b600181811c9082168061096857607f821691505b60208210810361098657634e487b7160e01b5f52602260045260245ffd5b50919050565b8082018082111561033e57634e487b7160e01b5f52601160045260245ffdfea2646970667358221220fdff520d6a5748b18c13856f87005bab1ad4849445083f8c7dc13ab33ac626fc64736f6c63430008180033","linkReferences":{}},"methodIdentifiers":{"FAUCET_AMOUNT()":"76697640","FAUCET_COOLDOWN()":"7d1d5d19","allowance(address,address)":"dd62ed3e","approve(address,uint256)":"095ea7b3","balanceOf(address)":"70a08231","decimals()":"313ce567","faucet()":"de5f72fd","lastFaucetClaim(address)":"8a877205","mintForPool(address,uint256)":"0219a714","name()":"06fdde03","owner()":"8da5cb5b","renounceOwnership()":"715018a6","symbol()":"95d89b41","totalSupply()":"18160ddd","transfer(address,uint256)":"a9059cbb","transferFrom(address,address,uint256)":"23b872dd","transferOwnership(address)":"f2fde38b"},"id":33}