{"abi":[{"type":"constructor","inputs":[{"name":"_zkLTC","type":"address","internalType":"address"},{"name":"_treasury","type":"address","internalType":"address"}],"stateMutability":"nonpayable"},{"type":"function","name":"DRAW_WINDOW","inputs":[],"outputs":[{"name":"","type":"uint256","internalType":"uint256"}],"stateMutability":"view"},{"type":"function","name":"MIN_USERS","inputs":[],"outputs":[{"name":"","type":"uint256","internalType":"uint256"}],"stateMutability":"view"},{"type":"function","name":"POOL_DURATION","inputs":[],"outputs":[{"name":"","type":"uint256","internalType":"uint256"}],"stateMutability":"view"},{"type":"function","name":"PROTOCOL_PCT","inputs":[],"outputs":[{"name":"","type":"uint256","internalType":"uint256"}],"stateMutability":"view"},{"type":"function","name":"STAKER_PCT","inputs":[],"outputs":[{"name":"","type":"uint256","internalType":"uint256"}],"stateMutability":"view"},{"type":"function","name":"STAKE_AMOUNT","inputs":[],"outputs":[{"name":"","type":"uint256","internalType":"uint256"}],"stateMutability":"view"},{"type":"function","name":"WINNER_PCT","inputs":[],"outputs":[{"name":"","type":"uint256","internalType":"uint256"}],"stateMutability":"view"},{"type":"function","name":"claimStakerReward","inputs":[{"name":"roundId","type":"uint256","internalType":"uint256"}],"outputs":[],"stateMutability":"nonpayable"},{"type":"function","name":"currentRound","inputs":[],"outputs":[{"name":"","type":"uint256","internalType":"uint256"}],"stateMutability":"view"},{"type":"function","name":"drawExecuted","inputs":[],"outputs":[{"name":"","type":"bool","internalType":"bool"}],"stateMutability":"view"},{"type":"function","name":"emergencyWithdraw","inputs":[{"name":"roundId","type":"uint256","internalType":"uint256"}],"outputs":[],"stateMutability":"nonpayable"},{"type":"function","name":"executeDraw","inputs":[],"outputs":[],"stateMutability":"nonpayable"},{"type":"function","name":"getCurrentRoundInfo","inputs":[],"outputs":[{"name":"id","type":"uint256","internalType":"uint256"},{"name":"startTime","type":"uint256","internalType":"uint256"},{"name":"userCount","type":"uint256","internalType":"uint256"},{"name":"totalPool","type":"uint256","internalType":"uint256"},{"name":"inDrawPhase","type":"bool","internalType":"bool"},{"name":"timeUntilDraw","type":"uint256","internalType":"uint256"},{"name":"canTriggerDraw","type":"bool","internalType":"bool"}],"stateMutability":"view"},{"type":"function","name":"getParticipants","inputs":[{"name":"roundId","type":"uint256","internalType":"uint256"}],"outputs":[{"name":"","type":"address[]","internalType":"address[]"}],"stateMutability":"view"},{"type":"function","name":"getPoolProgress","inputs":[],"outputs":[{"name":"current","type":"uint256","internalType":"uint256"},{"name":"minimum","type":"uint256","internalType":"uint256"},{"name":"percentage","type":"uint256","internalType":"uint256"}],"stateMutability":"view"},{"type":"function","name":"getRoundWinner","inputs":[{"name":"roundId","type":"uint256","internalType":"uint256"}],"outputs":[{"name":"","type":"address","internalType":"address"},{"name":"","type":"uint256","internalType":"uint256"}],"stateMutability":"view"},{"type":"function","name":"isDrawPhase","inputs":[],"outputs":[{"name":"","type":"bool","internalType":"bool"}],"stateMutability":"view"},{"type":"function","name":"isUserInCurrentPool","inputs":[{"name":"user","type":"address","internalType":"address"}],"outputs":[{"name":"","type":"bool","internalType":"bool"}],"stateMutability":"view"},{"type":"function","name":"joinPool","inputs":[],"outputs":[],"stateMutability":"nonpayable"},{"type":"function","name":"owner","inputs":[],"outputs":[{"name":"","type":"address","internalType":"address"}],"stateMutability":"view"},{"type":"function","name":"pause","inputs":[],"outputs":[],"stateMutability":"nonpayable"},{"type":"function","name":"paused","inputs":[],"outputs":[{"name":"","type":"bool","internalType":"bool"}],"stateMutability":"view"},{"type":"function","name":"renounceOwnership","inputs":[],"outputs":[],"stateMutability":"nonpayable"},{"type":"function","name":"roundEndTime","inputs":[],"outputs":[{"name":"","type":"uint256","internalType":"uint256"}],"stateMutability":"view"},{"type":"function","name":"roundParticipants","inputs":[{"name":"","type":"uint256","internalType":"uint256"},{"name":"","type":"uint256","internalType":"uint256"}],"outputs":[{"name":"","type":"address","internalType":"address"}],"stateMutability":"view"},{"type":"function","name":"roundStartTime","inputs":[],"outputs":[{"name":"","type":"uint256","internalType":"uint256"}],"stateMutability":"view"},{"type":"function","name":"rounds","inputs":[{"name":"","type":"uint256","internalType":"uint256"}],"outputs":[{"name":"id","type":"uint256","internalType":"uint256"},{"name":"startTime","type":"uint256","internalType":"uint256"},{"name":"endTime","type":"uint256","internalType":"uint256"},{"name":"totalPool","type":"uint256","internalType":"uint256"},{"name":"userCount","type":"uint256","internalType":"uint256"},{"name":"winner","type":"address","internalType":"address"},{"name":"winnerReward","type":"uint256","internalType":"uint256"},{"name":"sharesPerStaker","type":"uint256","internalType":"uint256"},{"name":"settled","type":"bool","internalType":"bool"}],"stateMutability":"view"},{"type":"function","name":"setTreasury","inputs":[{"name":"_treasury","type":"address","internalType":"address"}],"outputs":[],"stateMutability":"nonpayable"},{"type":"function","name":"transferOwnership","inputs":[{"name":"newOwner","type":"address","internalType":"address"}],"outputs":[],"stateMutability":"nonpayable"},{"type":"function","name":"treasury","inputs":[],"outputs":[{"name":"","type":"address","internalType":"address"}],"stateMutability":"view"},{"type":"function","name":"triggerDrawPhase","inputs":[],"outputs":[],"stateMutability":"nonpayable"},{"type":"function","name":"unpause","inputs":[],"outputs":[],"stateMutability":"nonpayable"},{"type":"function","name":"userInfo","inputs":[{"name":"","type":"uint256","internalType":"uint256"},{"name":"","type":"address","internalType":"address"}],"outputs":[{"name":"isActive","type":"bool","internalType":"bool"},{"name":"roundJoined","type":"uint256","internalType":"uint256"},{"name":"rewardClaimed","type":"bool","internalType":"bool"}],"stateMutability":"view"},{"type":"function","name":"zkLTC","inputs":[],"outputs":[{"name":"","type":"address","internalType":"contract IERC20"}],"stateMutability":"view"},{"type":"event","name":"DrawPhaseStarted","inputs":[{"name":"round","type":"uint256","indexed":true,"internalType":"uint256"},{"name":"userCount","type":"uint256","indexed":false,"internalType":"uint256"},{"name":"totalPool","type":"uint256","indexed":false,"internalType":"uint256"}],"anonymous":false},{"type":"event","name":"DrawSkipped","inputs":[{"name":"round","type":"uint256","indexed":true,"internalType":"uint256"},{"name":"userCount","type":"uint256","indexed":false,"internalType":"uint256"},{"name":"reason","type":"string","indexed":false,"internalType":"string"}],"anonymous":false},{"type":"event","name":"NewRoundStarted","inputs":[{"name":"round","type":"uint256","indexed":true,"internalType":"uint256"},{"name":"startTime","type":"uint256","indexed":false,"internalType":"uint256"}],"anonymous":false},{"type":"event","name":"OwnershipTransferred","inputs":[{"name":"previousOwner","type":"address","indexed":true,"internalType":"address"},{"name":"newOwner","type":"address","indexed":true,"internalType":"address"}],"anonymous":false},{"type":"event","name":"Paused","inputs":[{"name":"account","type":"address","indexed":false,"internalType":"address"}],"anonymous":false},{"type":"event","name":"PoolJoined","inputs":[{"name":"user","type":"address","indexed":true,"internalType":"address"},{"name":"round","type":"uint256","indexed":true,"internalType":"uint256"},{"name":"timestamp","type":"uint256","indexed":false,"internalType":"uint256"}],"anonymous":false},{"type":"event","name":"RoundSettled","inputs":[{"name":"round","type":"uint256","indexed":true,"internalType":"uint256"},{"name":"totalPool","type":"uint256","indexed":false,"internalType":"uint256"},{"name":"winner","type":"address","indexed":false,"internalType":"address"}],"anonymous":false},{"type":"event","name":"StakerRewardClaimed","inputs":[{"name":"user","type":"address","indexed":true,"internalType":"address"},{"name":"round","type":"uint256","indexed":true,"internalType":"uint256"},{"name":"amount","type":"uint256","indexed":false,"internalType":"uint256"}],"anonymous":false},{"type":"event","name":"Unpaused","inputs":[{"name":"account","type":"address","indexed":false,"internalType":"address"}],"anonymous":false},{"type":"event","name":"WinnerSelected","inputs":[{"name":"round","type":"uint256","indexed":true,"internalType":"uint256"},{"name":"winner","type":"address","indexed":true,"internalType":"address"},{"name":"reward","type":"uint256","indexed":false,"internalType":"uint256"}],"anonymous":false},{"type":"error","name":"EnforcedPause","inputs":[]},{"type":"error","name":"ExpectedPause","inputs":[]},{"type":"error","name":"OwnableInvalidOwner","inputs":[{"name":"owner","type":"address","internalType":"address"}]},{"type":"error","name":"OwnableUnauthorizedAccount","inputs":[{"name":"account","type":"address","internalType":"address"}]},{"type":"error","name":"ReentrancyGuardReentrantCall","inputs":[]},{"type":"error","name":"SafeERC20FailedOperation","inputs":[{"name":"token","type":"address","internalType":"address"}]}],"bytecode":{"object":"0x60a060405234801562000010575f80fd5b5060405162001ce638038062001ce68339810160408190526200003391620002d4565b60017f9b779b17422d0df92223018b32b4d1fa46e071723d6817e2486d003becc55f005533806200007e57604051631e4fbdf760e01b81525f60048201526024015b60405180910390fd5b620000898162000154565b506001600160a01b038216620000d25760405162461bcd60e51b815260206004820152600d60248201526c24b73b30b634b2103a37b5b2b760991b604482015260640162000075565b6001600160a01b0381166200011d5760405162461bcd60e51b815260206004820152601060248201526f496e76616c696420747265617375727960801b604482015260640162000075565b6001600160a01b03828116608052600180546001600160a01b0319169183169190911790556200014c620001a3565b505062000330565b5f80546001600160a01b038381166001600160a01b0319831681178455604051919092169283917f8be0079c531659141344cd1fd0a4f28419497f9722a3daafe3b4186f6b6457e09190a35050565b600160025f828254620001b791906200030a565b909155505042600381815560408051610120810182526002805480835260208084018781525f858701818152606087018281526080880183815260a0890184815260c08a0185815260e08b018681526101008c018781529987526006808a52968d90209b518c55965160018c015593518a8a015591519a89019a909a559851600488015597516005870180546001600160a01b0319166001600160a01b0390921691909117905596519685019690965594516007840155516008909201805460ff191692151592909217909155549051928352917ffee93879a5e67f5411452c57c1bc6f494462a67847f16a8ae120e5ff78e8b9c3910160405180910390a2565b80516001600160a01b0381168114620002cf575f80fd5b919050565b5f8060408385031215620002e6575f80fd5b620002f183620002b8565b91506200030160208401620002b8565b90509250929050565b808201808211156200032a57634e487b7160e01b5f52601160045260245ffd5b92915050565b60805161197a6200036c5f395f8181610218015281816108000152818161083801528181610b8201528181610de501526110eb015261197a5ff3fe608060405234801561000f575f80fd5b50600436106101fd575f3560e01c806393f1a40b11610114578063d9b7e66c116100a9578063e40205d611610079578063e40205d61461057d578063f0f4426014610586578063f2fde38b14610599578063faf5625f146105ac578063fbe80be5146105bb575f80fd5b8063d9b7e66c1461054b578063dd4f8f7414610554578063de26eadf1461055d578063df15877214610570575f80fd5b8063b7b9b703116100e4578063b7b9b703146104ed578063bdd611aa14610500578063c1e3bd3e14610508578063cbcdcd0114610528575f80fd5b806393f1a40b1461046c578063a6259ef1146104c9578063ad440992146104db578063b2c9a521146104e3575f80fd5b8063715018a6116101955780638371e6b4116101655780638371e6b41461038d5780638456cb59146103955780638a19c8bc1461039d5780638c65c81f146103a65780638da5cb5b1461045c575f80fd5b8063715018a6146102f5578063747dff42146102fd5780638278e8a81461033e5780638317ad4614610354575f80fd5b80635312ea8e116101d05780635312ea8e1461025f57806354a8fb47146102725780635c975abb146102c557806361d027b3146102e2575f80fd5b80632d49a7bf146102015780633f4ba83a1461020b5780634c6609a6146102135780634f5411e214610257575b5f80fd5b6102096105c3565b005b61020961091e565b61023a7f000000000000000000000000000000000000000000000000000000000000000081565b6040516001600160a01b0390911681526020015b60405180910390f35b61020961092e565b61020961026d366004611797565b610aa9565b6102a6610280366004611797565b5f90815260066020819052604090912060058101549101546001600160a01b0390911691565b604080516001600160a01b03909316835260208301919091520161024e565b5f54600160a01b900460ff165b604051901515815260200161024e565b60015461023a906001600160a01b031681565b610209610bcb565b610305610bdc565b6040805197885260208801969096529486019390935260608501919091521515608084015260a0830152151560c082015260e00161024e565b610346604681565b60405190815260200161024e565b6102d26103623660046117c9565b6002545f9081526008602090815260408083206001600160a01b039094168352929052205460ff1690565b610209610c90565b610209610f31565b61034660025481565b61040d6103b4366004611797565b600660208190525f9182526040909120805460018201546002830154600384015460048501546005860154968601546007870154600890970154959794969395929491936001600160a01b039092169290919060ff1689565b60408051998a5260208a019890985296880195909552606087019390935260808601919091526001600160a01b031660a085015260c084015260e083015215156101008201526101200161024e565b5f546001600160a01b031661023a565b6104aa61047a3660046117e9565b600860209081525f928352604080842090915290825290208054600182015460029092015460ff91821692911683565b604080519315158452602084019290925215159082015260600161024e565b6005546102d290610100900460ff1681565b610346601581565b6103466201275081565b6102096104fb366004611797565b610f41565b610346601481565b61051b610516366004611797565b611163565b60405161024e9190611813565b6105306111cc565b6040805193845260208401929092529082015260600161024e565b6103466104ec81565b61034660035481565b61023a61056b36600461185f565b61121c565b6005546102d29060ff1681565b61034660045481565b6102096105943660046117c9565b611250565b6102096105a73660046117c9565b6112c3565b61034667016345785d8a000081565b610346600a81565b6105cb6112fd565b6105d3611318565b60055460ff1661062a5760405162461bcd60e51b815260206004820152601760248201527f506f6f6c3a204e6f7420696e206472617720706861736500000000000000000060448201526064015b60405180910390fd5b600554610100900460ff16156106825760405162461bcd60e51b815260206004820152601b60248201527f506f6f6c3a204472617720616c726561647920657865637574656400000000006044820152606401610621565b6002545f908152600660205260409020600481015460151115610737576002547f0886321df0b49a34eed1c00e34ff782ec872898e1bb7a7fbc4f2d666d2e9bad082600401546040516107189181526040602082018190526023908201527f4c657373207468616e2032312075736572732e20506f6f6c20636f6e74696e7560608201526232b99760e91b608082015260a00190565b60405180910390a26005805460ff191690554260019190910155610906565b6005805461ff00191661010017905560038101545f6064610759604684611893565b61076391906118c4565b90505f6064610773601485611893565b61077d91906118c4565b90505f606461078d600a86611893565b61079791906118c4565b90505f8560040154836107aa91906118c4565b90505f6107b8600254611342565b6005880180546001600160a01b0319166001600160a01b0383811691909117909155600689018790556007890184905560088901805460ff19166001179055909150610827907f00000000000000000000000000000000000000000000000000000000000000001682876113d6565b600154610861906001600160a01b037f000000000000000000000000000000000000000000000000000000000000000081169116856113d6565b806001600160a01b03166002547ffee5b04775e1cd2311ed22cd00f5d2403aff38ff6f71d6d393f51854ed6bc9868760405161089f91815260200190565b60405180910390a3600254604080518881526001600160a01b03841660208201527f1545447ab2e80f46ca3a826062399fae7c316c78dc56dc74da95cc51f5c2264b910160405180910390a26005805461ffff191690556108fe611410565b505050505050505b61091c60015f8051602061192583398151915255565b565b610926611523565b61091c61154f565b610936611318565b6002545f908152600660205260409020600881015460ff16156109935760405162461bcd60e51b8152602060048201526015602482015274141bdbdb0e88105b1c9958591e481cd95d1d1b1959605a1b6044820152606401610621565b60055460ff16156109e65760405162461bcd60e51b815260206004820152601b60248201527f506f6f6c3a20416c726561647920696e206472617720706861736500000000006044820152606401610621565b6201275081600101546109f991906118d7565b421015610a485760405162461bcd60e51b815260206004820152601e60248201527f506f6f6c3a20323120686f757273206e6f7420656c61707365642079657400006044820152606401610621565b6005805460ff191660011790554260049081556002549082015460038301546040517f03121a397150a5e2a992b59e7c0afd678da352ddc0cde6f9840b0070950723eb92610a9e92908252602082015260400190565b60405180910390a250565b610ab16112fd565b610ab96115a3565b5f8181526008602090815260408083203384529091529020805460ff16610b165760405162461bcd60e51b8152602060048201526011602482015270139bdd0818481c185c9d1a58da5c185b9d607a1b6044820152606401610621565b600281015460ff1615610b5d5760405162461bcd60e51b815260206004820152600f60248201526e105b1c9958591e4818db185a5b5959608a1b6044820152606401610621565b805460ff1990811682556002820180549091166001179055610bb16001600160a01b037f0000000000000000000000000000000000000000000000000000000000000000163367016345785d8a00006113d6565b50610bc860015f8051602061192583398151915255565b50565b610bd3611523565b61091c5f6115cc565b6002545f90815260066020526040812060018101548291829182918291829182918290610c0990426118ea565b90505f62012750821015610c2957610c2482620127506118ea565b610c2b565b5f5b905060025483600101548460040154856003015460055f9054906101000a900460ff1685620127508810158015610c65575060055460ff16155b8015610c765750600889015460ff16155b995099509950995099509950995050505090919293949596565b610c986112fd565b610ca0611318565b60055460ff1615610d075760405162461bcd60e51b815260206004820152602b60248201527f506f6f6c3a2044726177207068617365206163746976652c20706c656173652060448201526a3bb0b4ba1019189036b4b760a91b6064820152608401610621565b6002545f90815260086020908152604080832033845290915290205460ff1615610d735760405162461bcd60e51b815260206004820152601f60248201527f506f6f6c3a20416c7265616479206a6f696e6564207468697320726f756e64006044820152606401610621565b6002545f908152600660205260409020600881015460ff1615610dd85760405162461bcd60e51b815260206004820152601b60248201527f506f6f6c3a20526f756e6420616c726561647920736574746c656400000000006044820152606401610621565b610e156001600160a01b037f000000000000000000000000000000000000000000000000000000000000000016333067016345785d8a000061161b565b600280545f9081526007602090815260408083208054600181810183559185528385200180546001600160a01b031916339081179091558251606081018452828152865481860181815282860188815291885260088752858820938852929095529285209251835490151560ff19918216178455905191830191909155915193018054931515939091169290921790915560038201805467016345785d8a00009290610ec29084906118d7565b925050819055506001816004015f828254610edd91906118d7565b909155505060025460405142815233907f5d7a294516b4a1829eed3a951be2033d36906528a5bf9aa9760885fd55b0c7e89060200160405180910390a35061091c60015f8051602061192583398151915255565b610f39611523565b61091c611657565b610f496112fd565b5f818152600660205260409020600881015460ff16610faa5760405162461bcd60e51b815260206004820152601b60248201527f506f6f6c3a20526f756e64206e6f7420736574746c65642079657400000000006044820152606401610621565b5f8281526008602090815260408083203384529091529020805460ff166110135760405162461bcd60e51b815260206004820152601760248201527f506f6f6c3a204e6f742061207061727469636970616e740000000000000000006044820152606401610621565b600281015460ff16156110605760405162461bcd60e51b8152602060048201526015602482015274141bdbdb0e88105b1c9958591e4818db185a5b5959605a1b6044820152606401610621565b60028101805460ff1990811660011790915581541681556007820154806110c95760405162461bcd60e51b815260206004820152601960248201527f506f6f6c3a204e6f2072657761726420617661696c61626c65000000000000006044820152606401610621565b5f6110dc8267016345785d8a00006118d7565b90506111126001600160a01b037f00000000000000000000000000000000000000000000000000000000000000001633836113d6565b604051828152859033907f03e6a6d2195e59d87a244a0782e3bb40c2db836815e4e28e13192f40235ba4c49060200160405180910390a350505050610bc860015f8051602061192583398151915255565b5f818152600760209081526040918290208054835181840281018401909452808452606093928301828280156111c057602002820191905f5260205f20905b81546001600160a01b031681526001909101906020018083116111a2575b50505050509050919050565b6002545f908152600660205260408120600401548190819081601582101561120a5760156111fb836064611893565b61120591906118c4565b61120d565b60645b91956015955091935090915050565b6007602052815f5260405f208181548110611235575f80fd5b5f918252602090912001546001600160a01b03169150829050565b611258611523565b6001600160a01b0381166112a15760405162461bcd60e51b815260206004820152601060248201526f496e76616c696420747265617375727960801b6044820152606401610621565b600180546001600160a01b0319166001600160a01b0392909216919091179055565b6112cb611523565b6001600160a01b0381166112f457604051631e4fbdf760e01b81525f6004820152602401610621565b610bc8816115cc565b611305611699565b60025f8051602061192583398151915255565b5f54600160a01b900460ff161561091c5760405163d93c066560e01b815260040160405180910390fd5b5f81815260076020908152604080832080546006845282852060030154835142818701524481860152606081018890526080810183905260a0808201929092528451808203909201825260c00190935282519290930191909120909182906113aa90836118fd565b815481106113ba576113ba611910565b5f918252602090912001546001600160a01b0316949350505050565b6113e383838360016116c8565b61140b57604051635274afe760e01b81526001600160a01b0384166004820152602401610621565b505050565b600160025f82825461142291906118d7565b909155505042600381815560408051610120810182526002805480835260208084018781525f858701818152606087018281526080880183815260a0890184815260c08a0185815260e08b018681526101008c018781529987526006808a52968d90209b518c55965160018c015593518a8a015591519a89019a909a559851600488015597516005870180546001600160a01b0319166001600160a01b0390921691909117905596519685019690965594516007840155516008909201805460ff191692151592909217909155549051928352917ffee93879a5e67f5411452c57c1bc6f494462a67847f16a8ae120e5ff78e8b9c3910160405180910390a2565b5f546001600160a01b0316331461091c5760405163118cdaa760e01b8152336004820152602401610621565b6115576115a3565b5f805460ff60a01b191690557f5db9ee0a495bf2e6ff9c91a7834c1ba4fdd244a5e8aa4e537bd38aeae4b073aa335b6040516001600160a01b03909116815260200160405180910390a1565b5f54600160a01b900460ff1661091c57604051638dfc202b60e01b815260040160405180910390fd5b5f80546001600160a01b038381166001600160a01b0319831681178455604051919092169283917f8be0079c531659141344cd1fd0a4f28419497f9722a3daafe3b4186f6b6457e09190a35050565b61162984848484600161172a565b61165157604051635274afe760e01b81526001600160a01b0385166004820152602401610621565b50505050565b61165f611318565b5f805460ff60a01b1916600160a01b1790557f62e78cea01bee320cd4e420270b5ea74000d11b0c9f74754ebdbfc544b05a2586115863390565b5f805160206119258339815191525460020361091c57604051633ee5aeb560e01b815260040160405180910390fd5b60405163a9059cbb60e01b5f8181526001600160a01b038616600452602485905291602083604481808b5af1925060015f5114831661171e578383151615611712573d5f823e3d81fd5b5f873b113d1516831692505b60405250949350505050565b6040516323b872dd60e01b5f8181526001600160a01b038781166004528616602452604485905291602083606481808c5af1925060015f5114831661178657838315161561177a573d5f823e3d81fd5b5f883b113d1516831692505b604052505f60605295945050505050565b5f602082840312156117a7575f80fd5b5035919050565b80356001600160a01b03811681146117c4575f80fd5b919050565b5f602082840312156117d9575f80fd5b6117e2826117ae565b9392505050565b5f80604083850312156117fa575f80fd5b8235915061180a602084016117ae565b90509250929050565b602080825282518282018190525f9190848201906040850190845b818110156118535783516001600160a01b03168352928401929184019160010161182e565b50909695505050505050565b5f8060408385031215611870575f80fd5b50508035926020909101359150565b634e487b7160e01b5f52601160045260245ffd5b80820281158282048414176118aa576118aa61187f565b92915050565b634e487b7160e01b5f52601260045260245ffd5b5f826118d2576118d26118b0565b500490565b808201808211156118aa576118aa61187f565b818103818111156118aa576118aa61187f565b5f8261190b5761190b6118b0565b500690565b634e487b7160e01b5f52603260045260245ffdfe9b779b17422d0df92223018b32b4d1fa46e071723d6817e2486d003becc55f00a264697066735822122028ab71172bd88e5a51388ba42fa5c51917cbf08170e739216bf8108c64e94d5c64736f6c63430008180033","linkReferences":{}},"methodIdentifiers":{"DRAW_WINDOW()":"d9b7e66c","MIN_USERS()":"ad440992","POOL_DURATION()":"b2c9a521","PROTOCOL_PCT()":"fbe80be5","STAKER_PCT()":"bdd611aa","STAKE_AMOUNT()":"faf5625f","WINNER_PCT()":"8278e8a8","claimStakerReward(uint256)":"b7b9b703","currentRound()":"8a19c8bc","drawExecuted()":"a6259ef1","emergencyWithdraw(uint256)":"5312ea8e","executeDraw()":"2d49a7bf","getCurrentRoundInfo()":"747dff42","getParticipants(uint256)":"c1e3bd3e","getPoolProgress()":"cbcdcd01","getRoundWinner(uint256)":"54a8fb47","isDrawPhase()":"df158772","isUserInCurrentPool(address)":"8317ad46","joinPool()":"8371e6b4","owner()":"8da5cb5b","pause()":"8456cb59","paused()":"5c975abb","renounceOwnership()":"715018a6","roundEndTime()":"e40205d6","roundParticipants(uint256,uint256)":"de26eadf","roundStartTime()":"dd4f8f74","rounds(uint256)":"8c65c81f","setTreasury(address)":"f0f44260","transferOwnership(address)":"f2fde38b","treasury()":"61d027b3","triggerDrawPhase()":"4f5411e2","unpause()":"3f4ba83a","userInfo(uint256,address)":"93f1a40b","zkLTC()":"4c6609a6"},"id":32}